S01900006D6963726F636869705F6279676765726E2E7372656300
S11300000C9438000C9455000C9455000C94550035
S11300100C9455000C9455000C9455000C94550008
S11300200C9455000C9455000C9455000C945500F8
S11300300C9455000C9455000C9455000C945500E8
S11300400C9455000C9455000C9455000C945500D8
S11300500C9455000C9455000C9455000C945500C8
S11300600C9455000C9455000C9455000C945500B8
S113007011241FBECFEFD4E0DEBFCDBF11E0A0E05E
S1130080B1E0E6E9FCE002C005900D92A834B107A6
S1130090D9F721E0A8E4B1E001C01D92AB35B20765
S11300A0E1F70E9457000C9449060C9400008FE17C
S11300B090E00E94710186E091E09F938F930E94EB
S11300C0F7010E94A2010E9484010E940E010E9475
S11300D0C2000E94A8000F900F9080E00E945E0171
S11300E0FCCFCF93C82F88B38F7E88BB83E00E9458
S11300F05E018C2F0E945E010E94620198B39061A0
S113010098BBCF9108951F93CF93DF93182FD62FC9
S1130110C42F88B38F7E88BB85E00E945E01812F47
S11301200E945E018D2F0E945E018C2F0E945E0151
S113013088B3806188BBDF91CF911F91089580ECD3
S11301400E945E0140E860EE8FE00E948300089503
S113015087B3806187BB0E9457010E949F008EE095
S11301600E947100807E803831F083E191E00E942A
S11301700D0281E0089540E460EE8FE00E94830068
S113018080E00895109248011092490160E070E007
S113019080E090E00E94FA000E94D50008958093C8
S11301A0001208958093001008950F931F93CF9326
S11301B0DF9300E010E016C080EB800F0E94D200B5
S11301C080E00E94D20080E10E94D200C0E0D0E032
S11301D004C080E00E94CF002196C038D105CCF342
S11301E00F5F1F4F083011053CF3DF91CF911F9132
S11301F00F910895CF93C62F869586958695805541
S11302000E94D2008C2F8F700E94D2008C2F829576
S11302108F70805F0E94D200CF9108958EEA0E9471
S1130220D20081EA0E94D2008AED0E94D20082E1CB
S11302300E94D20088EC0E94D20088EA0E94D20078
S11302408FE30E94D20085ED0E94D20080E80E94D4
S1130250D20081E80E94D20080E50E94D20089ED9C
S11302600E94D20081E20E94D20080E20E94D20069
S113027082E00E94D2008BED0E94D20080E30E94B3
S1130280D2008DEA0E94D20080E00E94D20084EA6B
S11302900E94D20086EA0E94D2008FEA0E94D20015
S11302A00E94D50060E080E00E94FA00089587B3C0
S11302B0806A87BB8DB181658DB908958FB9779BAD
S11302C0FECF08951FB8779BFECF8FB108955D9B35
S11302D0FECF8CB908955F9B02C08CB1089580E075
S11302E00895CF93DF93C82FD92F6BE671E087E68B
S11302F091E00E94AC01D0BDC9B988E18AB98EE809
S113030080BDDF91CF91089581B3806181BBABE85B
S1130310B0E08C9180648C93EAE8F0E0808188619D
S113032080838C9183608C93808181608083109220
S113033087001092860081B38B7F81BB81B3877F56
S113034081BB089585B7806885BF80B7806280BF10
S113035080B7877E80BF08950F931F93CF93DF9359
S1130360009731F46115710519F480E090E03AC00A
S11303708B01EC016EE070E081E090E00E941E04CD
S1130380FC01892B91F380E883830115110571F039
S11303901387028781E883838091510190915201F0
S11303A0892B21F4F0935201E09351012097C9F075
S11303B0D187C08783818260838380915301909128
S11303C05401892B71F4F0935401E093530180910B
S11303D0550190915601892B21F4F0935601E09335
S11303E05501CF01DF91CF911F910F910895A0E0A6
S11303F0B0E0EDEFF1E00C942206AE014B5F5F4FED
S1130400FA0161917191AF0180915301909154016E
S11304100E943D02E2E00C943E060F931F93CF939B
S1130420DF93E0915301F0915401238121FF1BC01C
S11304308C01D0E0C0E0F80181918F0160915301FB
S113044070915401DB011896ED91FC911997882362
S113045031F00995892B79F3DFEFCFEFECCF8AE008
S11304600995892B19F08FEF9FEF02C08D2F9C2FD8
S1130470DF91CF911F910F910895ABE0B0E0E3E4D9
S1130480F2E00C9412066C017B018A01FC011782D4
S11304901682838181FFCCC1CE0101963C01F60115
S11304A09381F70193FD859193FF81917F018823C7
S11304B009F4BAC1853239F493FD859193FF819192
S11304C07F01853229F4B60190E00E947805E7CFD8
S11304D0912C212C312CFFE1F315D8F08B3279F0DB
S11304E038F4803279F08332A1F4232D20611DC0C9
S11304F08D3261F0803369F4232D216016C0832D81
S11305008260382EE32DE4603E2E2AC0F32DF8607D
S11305101DC037FC2DC020ED280F2A3040F08E324C
S1130520B9F436FC81C1232D2064322E19C036FE65
S113053006C08AE0989E200D1124922E11C0EAE094
S11305402E9E200D1124222EF32DF0623F2E08C082
S11305508C3621F4832D8068382E02C0883641F40D
S1130560F70193FD859193FF81917F018111B3CFB1
S1130570982F9F7D9554933028F40C5F1F4F9FE371
S113058099830DC0833631F0833771F0833509F0D8
S113059059C021C0F801808189830E5F1F4F8824D0
S11305A08394912C530113C02801F2E04F0E511C87
S11305B0F801A080B18036FE03C0692D70E002C04E
S11305C06FEF7FEFC5010E946D054C018201F32D91
S11305D0FF773F2E16C0280122E0420E511CF8017D
S11305E0A080B18036FE03C0692D70E002C06FEFB9
S11305F07FEFC5010E945B054C01F32DF0683F2E8F
S1130600820133FC1BC0822D90E088169906B0F459
S1130610B60180E290E00E9478052A94F4CFF501B7
S113062037FC859137FE81915F01B60190E00E940D
S1130630780521102A9421E0821A910881149104EA
S113064071F7E8C0843611F0893641F5F80137FEB8
S113065007C060817181828193810C5F1F4F08C044
S113066060817181072E000C880B990B0E5F1F4F60
S1130670F32DFF763F2E97FF09C0909580957095D6
S113068061957F4F8F4F9F4FF0683F2E2AE030E0F7
S1130690A3010E94B405882E861845C0853731F41D
S11306A0232D2F7EB22E2AE030E025C0932D997F92
S11306B0B92E8F36C1F018F4883579F0B5C080377B
S11306C019F0883721F0B0C0E92FE061BE2EB4FEE6
S11306D00DC0FB2DF460BF2E09C034FE0AC0292FC3
S11306E02660B22E06C028E030E005C020E130E0EC
S11306F002C020E132E0F801B7FE07C060817181D9
S1130700828193810C5F1F4F06C06081718180E0FC
S113071090E00E5F1F4FA3010E94B405882E861837
S1130720FB2DFF773F2E36FE0DC0232D2E7FA22EEC
S1130730891458F434FE0BC032FC09C0832D8E7E1C
S1130740A82E05C0B82CA32C03C0B82C01C0B92C0A
S1130750A4FE0FC0FE01E80DF11D8081803321F459
S11307609A2D997EA92E09C0A2FE06C0B394B39413
S113077004C08A2D867809F0B394A3FC11C0A0FEAE
S113078006C0B21488F4280C922C9B180EC0B21424
S113079060F4B60180E290E00E947805B394F7CF4C
S11307A0B21418F42B1802C0982C212CA4FE10C0EB
S11307B0B60180E390E00E947805A2FE17C0A1FC78
S11307C003C088E790E002C088E590E0B6010CC061
S11307D08A2D867859F0A1FE02C08BE201C080E226
S11307E0A7FC8DE2B60190E00E947805891438F4E4
S11307F0B60180E390E00E9478059A94F7CF8A943A
S1130800F301E80DF11D8081B60190E00E947805A6
S11308108110F5CF222009F442CEB60180E290E0A7
S11308200E9478052A94F6CFF6018681978102C04A
S11308308FEF9FEF2B96E2E10C942E060F931F93FC
S1130840CF93DF93869F8001879F100D969F100D95
S11308501124C8010E943A04EC01009729F0A80170
S113086060E070E00E946605CE01DF91CF911F9198
S11308700F9108950F931F93CF93DF9382309105C7
S113088010F482E090E0E0915901F0915A0120E0E7
S113089030E0A0E0B0E0309719F14081518102814D
S11308A0138148175907C8F08417950769F41097FE
S11308B031F012960C93129713961C9327C0009351
S11308C0590110935A0122C02115310519F042171C
S11308D0530718F49A01BD01EF01DF01F801DBCFE2
S11308E021153105F9F0281B390B2430310580F42A
S11308F08A819B816115710521F0FB0193838283B9
S113090004C090935A0180935901FE01329644C069
S1130910FE01E20FF31F8193919322503109398331
S113092028833AC02091570130915801232B41F478
S11309302091020130910301309358012093570113
S113094020910001309101012115310541F42DB7A9
S11309503EB74091040150910501241B350BE091F1
S11309605701F0915801E217F307A0F42E1B3F0B37
S11309702817390778F0AC014E5F5F4F241735070D
S113098048F04E0F5F1F50935801409357018193D5
S1130990919302C0E0E0F0E0CF01DF91CF911F918D
S11309A00F910895CF93DF93009709F481C0FC0160
S11309B0329713821282A0915901B0915A01109773
S11309C081F420813181820F931F2091570130914E
S11309D058012817390751F5F0935801E09357014E
S11309E067C0ED0120E030E0CE17DF0740F44A8114
S11309F05B819E0141155105F1F0EA01F5CFD383E6
S1130A00C28340815181840F951FC817D90759F4B7
S1130A1088819981840F951F0296918380838A81AE
S1130A209B81938382832115310529F4F0935A0124
S1130A30E09359013DC0E901FB83EA83499159914F
S1130A40C40FD51FEC17FD0761F480819181840FD9
S1130A50951F0296E90199838883828193819B8300
S1130A608A83E0E0F0E012968D919C9113970097B1
S1130A7019F0FD01DC01F7CF8D919C9111979D0137
S1130A802E5F3F4F820F931F2091570130915801E1
S1130A902817390769F4309729F410925A011092F3
S1130AA0590102C013821282B0935801A0935701D6
S1130AB0DF91CF910895FC010590615070400110C1
S1130AC0D8F7809590958E0F9F1F0895DC0101C083
S1130AD06D9341505040E0F70895FC01615070401F
S1130AE001900110D8F7809590958E0F9F1F08955F
S1130AF00F931F93CF93DF93FB01238121FD03C049
S1130B008FEF9FEF2CC022FF16C0468157812481AE
S1130B1035814217530744F4A081B1819D012F5FB1
S1130B203F4F318320838C93268137812F5F3F4F42
S1130B303783268314C08B01EC01FB010084F1850B
S1130B40E02D0995892BE1F6D80116968D919C919B
S1130B501797019617969C938E931697CE01DF9163
S1130B60CF911F910F910895FA01AA27283051F1CE
S1130B70203181F1E8946F936E7F6E5F7F4F8F4FCA
S1130B809F4FAF4FB1E03ED0B4E03CD0670F781F29
S1130B90891F9A1FA11D680F791F8A1F911DA11D0E
S1130BA06A0F711D811D911DA11D20D009F4689447
S1130BB03F912AE0269F11243019305D3193DEF6EF
S1130BC0CF010895462F4770405D4193B3E00FD0A5
S1130BD0C9F7F6CF462F4F70405D4A3318F0495D90
S1130BE031FD4052419302D0A9F7EACFB4E0A69573
S1130BF09795879577956795BA95C9F70097610595
S1130C00710508959B01AC010A2E069457954795EA
S1130C1037952795BA95C9F7620F731F841F951FDF
S1130C20A01D08952F923F924F925F926F927F92F0
S1130C308F929F92AF92BF92CF92DF92EF92FF92E8
S1130C400F931F93CF93DF93CDB7DEB7CA1BDB0B94
S1130C500FB6F894DEBF0FBECDBF09942A88398839
S1130C6048885F846E847D848C849B84AA84B98440
S1130C70C884DF80EE80FD800C811B81AA81B9814C
S1130C80CE0FD11D0FB6F894DEBF0FBECDBFED0160
S1090C900895F894FFCF63
S1130C9600005B01200068656C6C6F20776F726CD6
S1130CA6642000204D435032353135206973204E7F
S1130CB64F5420696E20636F6E666967757261743E
S1130CC6696F6E206D6F646520616674657220724B
S10B0CD6657365742021000020
S9030000FC
