S01900006D6963726F636869705F6279676765726E2E7372656300
S11300000C94B4010C94D1010C94D1010C94D10141
S11300100C94D1010C94D1010C94D1010C94D10114
S11300200C94D1010C94D1010C94D1010C94D10104
S11300300C94D1010C94D1010C94D1010C94D101F4
S11300400C94D1010C94D1010C94D1010C94D101E4
S11300500C94D1010C94D1010C94D1010C94D101D4
S11300600C94D1010C94D1010C94D1010C94D101C4
S1130070000000000000000000065F5F06000000B2
S11300800007070007070000147F7F147F7F140018
S1130090242E6B6B3A120000466630180C66620020
S11300A0307A4F5D377A48000407030000000000EF
S11300B0001C3E63410000000041633E1C00000040
S11300C0082A3E1C1C3E2A0808083E3E0808000078
S11300D000A0E0600000000008080808080800000C
S11300E000006060000000006030180C060301008E
S11300F03E7F594D7F3E000042427F7F40400000DA
S1130100627359496F660000226349497F360000D3
S1130110181C16137F7F1000276745457D390000A2
S11301203C7E4B4979300000036371190F070000CE
S1130130367F49497F360000064F49693F1E00005B
S113014000006C6C0000000000A0EC6C00000000DB
S1130150081C366341000000141414141414000025
S1130160004163361C080000020351590F060000C9
S11301703E7F415D5D1F1E007C7E13137E7C00006C
S1130180417F7F49497F36001C3E63414163220021
S1130190417F7F41637F1C00417F7F495D41630054
S11301A0417F7F491D0103001C3E6341517372006E
S11301B07F7F08087F7F000000417F7F41000000AF
S11301C0307040417F3F0100417F7F081C7763000E
S11301D0417F7F41406070007F7F060C067F7F0077
S11301E07F7F060C187F7F001C3E6341633E1C002A
S11301F0417F7F49090F06001E3F21717F5E000089
S1130200417F7F19396F460026674D597B320000C4
S113021003417F7F410300007F7F40407F7F0000D8
S11302201F3F60603F1F00007F7F3018307F7F00DA
S113023063771C081C776300074F78784F0700002A
S11302406773594D47637100007F7F41410000008F
S11302500103060C183060000041417F7F0000005C
S1130260080C0603060C0800808080808080808053
S11302700000030704000000207454543C7840003C
S1130280413F7F44447C3800387C44446C2800005F
S1130290307848493F7F4000387C54545C18000053
S11302A0487E7F490302000098BCA4A4F87C0400A3
S11302B0417F7F08047C780000447D7D400000007D
S11302C040C484FD7D000000417F7F10386C4400F1
S11302D000417F7F400000007C7C0C180C7C78007F
S11302E07C7C04047C780000387C44447C38000026
S11302F084FCF8A4243C1800183C24A4F8FC8400D2
S1130300447C78441C180000485C54547424000055
S113031000043E7F442400003C7C40403C7C400080
S11303201C3C60603C1C00003C7C6030607C3C00F9
S1130330446C3810386C44009CBCA0A0FC7C0000C9
S11303404C64745C4C64000008083E774141000032
S113035000000077770000004141773E0808000064
S1130360020301030203010011241FBECFEFD4E0F6
S1130370DEBFCDBF11E0A0E0B1E0E8EDF4E102C0E2
S113038005900D92A236B107D9F721E0A2E6B1E0BB
S113039001C01D92A537B207E1F70E94D3010C9466
S11303A06A0A0C940000CF93DF93CDB7DEB727978A
S11303B00FB6F894DEBF0FBECDBF8FE190E00E9470
S11303C0AE030E9499040E94C1030E9414030E9478
S11303D0F20182E191E00E942E060E94DF030E9456
S11303E05402FBCF109262011092630160E070E04E
S11303F080E090E00E9400030E94DB0208950F93C6
S11304001F93CF93DF93CDB7DEB727970FB6F8943A
S1130410DEBF0FBECDBF7E8390916A01891303C0F6
S11304208091690178130E94DB0200E010E020C093
S1130430C801880F991F880F991F880F991F6AE0B8
S113044070E00A960E9400038091630190E0FC0131
S1130450EE0FFF1FE80FF91FE00FF11FEE0FFF1F54
S1130460EA5FFE4F808191810E947B030F5F1F4FE3
S113047003301105ECF28091620190E0880F991F1E
S1130480880F991F880F991F60E070E00A960E94F8
S1130490920327960FB6F894DEBF0FBECDBFDF914F
S11304A0CF911F910F9108951F93CF93DF93CDB7F1
S11304B0DEB727970FB6F894DEBF0FBECDBF2983F2
S11304C03A834B835C836D837E838F83182F8130C3
S11304D0C9F480916A018130A9F08091620190E0B1
S11304E0019712F480E090E0809362011F928F9351
S11304F08EE191E09F938F930E9418060F900F90C6
S11305000F900F901330D9F480916A018330B9F0C1
S11305108091620190E001968330910514F082E0AD
S113052090E0809362011F928F9384E291E09F9305
S11305308F930E9418060F900F900F900F908E814A
S11305408823B9F080916901811113C080916301FE
S113055090E020916201FC01EE0FFF1FE80FF91FEC
S1130560EE0FFF1FEA5AFE4FE20FF11D81818093C7
S1130570630129813A814B815C816D817E818F8108
S11305800E94FF0187E0FE013196A4E6B1E00190EC
S11305900D928A95E1F727960FB6F894DEBF0FBE49
S11305A0CDBFDF91CF911F910895809300120895DC
S11305B08093001008950F931F93CF93DF9300E06F
S11305C010E016C080EB800F0E94D80280E00E94E9
S11305D0D80280E10E94D802C0E0D0E004C080E0EC
S11305E00E94D5022196C038D105CCF30F5F1F4F6E
S11305F0083011053CF3DF91CF911F910F910895BD
S1130600CF93C62F86958695869580550E94D802ED
S11306108C2F8F700E94D8028C2F82958F70805FF0
S11306200E94D802CF9108958EEA0E94D80281EAEE
S11306300E94D8028AED0E94D80282E10E94D80268
S113064088EC0E94D80288EA0E94D8028FE30E94B4
S1130650D80285ED0E94D80280E80E94D80281E881
S11306600E94D80280E50E94D80289ED0E94D80237
S113067081E20E94D80280E20E94D80282E00E94B5
S1130680D8028BED0E94D80280E30E94D8028DEA42
S11306900E94D80280E00E94D80284EA0E94D80214
S11306A086EA0E94D8028FEA0E94D8020E94DB02E6
S11306B060E080E00E94000308951F93CF93DF93CE
S11306C0182FC0E0D0E010C0E12FF0E0EE0FFF1FC4
S11306D0EE0FFF1FEE0FFF1FEC0FFD1FE059FF4F42
S11306E084910E94D5022196C830D1056CF3DF9124
S11306F0CF911F9108950F931F93CF93DF938C0194
S1130700C0E0D0E004C080520E945D032196F8014D
S1130710EC0FFD1F80818111F6CFDF91CF911F91E6
S11307200F9108950E94000388E10E94D50288E198
S11307300E94D5028EE70E94D5028CE30E94D50266
S113074088E10E94D50208955D9BFECF8CB908957F
S11307505F9B02C08CB1089580E00895CF93DF932E
S1130760C82FD92F68EA73E084EA93E00E94CD058C
S1130770D0BDC9B988E18AB98EE880BDDF91CF9137
S1130780089581B3806181BBABE8B0E08C91806453
S11307908C93EAE8F0E08081886180838C918360A7
S11307A08C938081816080831092870010928600F0
S11307B081B38B7F81BB81B3877F81BB0895BF9257
S11307C0CF92DF92EF92FF920F931F93CF93DF9319
S11307D0CDB7DEB72E970FB6F894DEBF0FBECDBFF0
S11307E0E0E0F4E1108287E893E10197F1F700C0BB
S11307F00000D0800081E080F0809FEA9D1518F40D
S113080061E56D0D01C060E0073C18F01AE3100FBC
S113081001C010E070E080E090E00E94D20423E385
S113082033E34BEC5FE30E9438050E94A304B62E29
S1130830612F70E080E090E00E94D20424EB38E95C
S11308404EE050E40E9438050E94A304162F8EEA5D
S11308508D1518F06FEA6D1901C060E0063C20F4B4
S113086086ECD82ED01A01C0D12C70E080E090E044
S11308700E94D20429E638EC49E35FE30E9438057C
S11308800E94A304C62E6D2D70E080E090E00E94CB
S1130890D20428EB33E344E25FE30E9438050E946C
S11308A0A3049B2D9C1990589987812F861B8058EF
S11308B088871E86973C10F021E02E87873C10F035
S11308C022E02E87943410F493E09E87843410F44D
S11308D084E08E87EA86FB8680B384708D8780B33C
S11308E088708C8787E893E10197F1F700C00000D6
S11308F087E0FE013896DE01119601900D928A95EB
S1130900E1F729813A814B815C816D817E818F8100
S113091090E02E960FB6F894DEBF0FBECDBFDF91E8
S1130920CF911F910F91FF90EF90DF90CF90BF90E8
S1130930089585B7806885BF80B7806280BF80B71F
S1130940877E80BF08950E94170588F09F5798F00E
S1130950B92F9927B751B0F0E1F0660F771F881FC0
S1130960991F1AF0BA95C9F714C0B13091F00E94DA
S11309703105B1E008950C943105672F782F88274D
S1130980B85F39F0B93FCCF3869577956795B39501
S1130990D9F73EF490958095709561957F4F8F4F70
S11309A09F4F0895E89409C097FB3EF49095809575
S11309B0709561957F4F8F4F9F4F9923A9F0F92F21
S11309C096E9BB279395F695879577956795B7959F
S11309D0F111F8CFFAF4BB0F11F460FF1BC06F5F85
S11309E07F4F8F4F9F4F16C0882311F096E911C097
S11309F0772321F09EE8872F762F05C0662371F0B8
S1130A0096E8862F70E060E02AF09A95660F771FCB
S1130A10881FDAF7880F9695879597F9089557FDFB
S1130A209058440F551F59F05F3F71F04795880F58
S1130A3097FB991F61F09F3F79F0879508951216EF
S1130A4013061406551FF2CF4695F1DF08C016169B
S1130A5017061806991FF1CF86957105610508944C
S1130A600895E894BB2766277727CB0197F9089563
S1130A700E944B050C94BC050E94AE0538F00E9400
S1130A80B50520F0952311F00C94A5050C94AB0545
S1130A9011240C9432050E940F0570F3959FC1F345
S1130AA0950F50E0551F629FF001729FBB27F00D18
S1130AB0B11D639FAA27F00DB11DAA1F649F66276D
S1130AC0B00DA11D661F829F2227B00DA11D621FBC
S1130AD0739FB00DA11D621F839FA00D611D221F76
S1130AE0749F3327A00D611D231F849F600D211D5A
S1130AF0822F762F6A2F11249F5750409AF0F1F0DD
S1130B0088234AF0EE0FFF1FBB1F661F771F881F45
S1130B1091505040A9F79E3F510580F00C94A505D3
S1130B200C9432055F3FE4F3983ED4F386957795B1
S1130B306795B795F795E7959F5FC1F7FE2B880FEB
S1130B40911D9695879597F9089597F99F6780E881
S1130B5070E060E008959FEF80EC089500240A940B
S1130B601616170618060906089500240A94121684
S1130B701306140605060895092E0394000C11F4B7
S1130B80882352F0BB0F40F4BF2B11F460FF04C064
S1130B906F5F7F4F8F4F9F4F08950F931F93CF9396
S1130BA0DF93009731F46115710519F480E090E04A
S1130BB03AC08B01EC016EE070E081E090E00E94AD
S1130BC03F08FC01892B91F380E88383011511050B
S1130BD071F01387028781E8838380916B01909180
S1130BE06C01892B21F4F0936C01E0936B01209745
S1130BF0C9F0D187C08783818260838380916D012E
S1130C0090916E01892B71F4F0936E01E0936D0164
S1130C1080916F0190917001892B21F4F093700100
S1130C20E0936F01CF01DF91CF911F910F91089550
S1130C30A0E0B0E0EEE1F6E00C94430AAE014B5FB5
S1130C405F4FFA0161917191AF0180916D019091B3
S1130C506E010E945E06E2E00C945F0A0F931F93FC
S1130C60CF93DF93E0916D01F0916E01238121FF19
S1130C701BC08C01D0E0C0E0F80181918F0160912C
S1130C806D0170916E01DB011896ED91FC9119973D
S1130C90882331F00995892B79F3DFEFCFEFECCF7F
S1130CA08AE00995892B19F08FEF9FEF02C08D2FF1
S1130CB09C2FDF91CF911F910F910895ABE0B0E08D
S1130CC0E4E6F6E00C94330A6C017B018A01FC0132
S1130CD017821682838181FFCCC1CE0101963C012B
S1130CE0F6019381F70193FD859193FF81917F0133
S1130CF0882309F4BAC1853239F493FD859193FFB1
S1130D0081917F01853229F4B60190E00E9499090E
S1130D10E7CF912C212C312CFFE1F315D8F08B3245
S1130D2079F038F4803279F08332A1F4232D2061F4
S1130D301DC08D3261F0803369F4232D216016C00B
S1130D40832D8260382EE32DE4603E2E2AC0F32DDD
S1130D50F8601DC037FC2DC020ED280F2A3040F06C
S1130D608E32B9F436FC81C1232D2064322E19C091
S1130D7036FE06C08AE0989E200D1124922E11C0E2
S1130D80EAE02E9E200D1124222EF32DF0623F2E38
S1130D9008C08C3621F4832D8068382E02C0883632
S1130DA041F4F70193FD859193FF81917F018111B6
S1130DB0B3CF982F9F7D9554933028F40C5F1F4F29
S1130DC09FE399830DC0833631F0833771F0833507
S1130DD009F059C021C0F801808189830E5F1F4F3B
S1130DE088248394912C530113C02801F2E04F0E00
S1130DF0511CF801A080B18036FE03C0692D70E05B
S1130E0002C06FEF7FEFC5010E948E094C01820181
S1130E10F32DFF773F2E16C0280122E0420E511C0D
S1130E20F801A080B18036FE03C0692D70E002C0D5
S1130E306FEF7FEFC5010E947C094C01F32DF06830
S1130E403F2E820133FC1BC0822D90E08816990648
S1130E50B0F4B60180E290E00E9499092A94F4CF9C
S1130E60F50137FC859137FE81915F01B60190E071
S1130E700E94990921102A9421E0821A9108811470
S1130E80910471F7E8C0843611F0893641F5F80110
S1130E9037FE07C060817181828193810C5F1F4F8F
S1130EA008C060817181072E000C880B990B0E5FBE
S1130EB01F4FF32DFF763F2E97FF09C09095809525
S1130EC0709561957F4F8F4F9F4FF0683F2E2AE0BA
S1130ED030E0A3010E94D509882E861845C08537C5
S1130EE031F4232D2F7EB22E2AE030E025C0932D3D
S1130EF0997FB92E8F36C1F018F4883579F0B5C0D2
S1130F00803719F0883721F0B0C0E92FE061BE2E98
S1130F10B4FE0DC0FB2DF460BF2E09C034FE0AC020
S1130F20292F2660B22E06C028E030E005C020E15B
S1130F3030E002C020E132E0F801B7FE07C0608172
S1130F407181828193810C5F1F4F06C06081718122
S1130F5080E090E00E5F1F4FA3010E94D509882E08
S1130F608618FB2DFF773F2E36FE0DC0232D2E7FD6
S1130F70A22E891458F434FE0BC032FC09C0832D10
S1130F808E7EA82E05C0B82CA32C03C0B82C01C09B
S1130F90B92CA4FE0FC0FE01E80DF11D8081803341
S1130FA021F49A2D997EA92E09C0A2FE06C0B394FD
S1130FB0B39404C08A2D867809F0B394A3FC11C0BD
S1130FC0A0FE06C0B21488F4280C922C9B180EC004
S1130FD0B21460F4B60180E290E00E949909B394DF
S1130FE0F7CFB21418F42B1802C0982C212CA4FEAD
S1130FF010C0B60180E390E00E949909A2FE17C0D8
S1131000A1FC03C088E790E002C088E590E0B60147
S11310100CC08A2D867859F0A1FE02C08BE201C073
S113102080E2A7FC8DE2B60190E00E949909891440
S113103038F4B60180E390E00E9499099A94F7CFBE
S11310408A94F301E80DF11D8081B60190E00E94BD
S113105099098110F5CF222009F442CEB60180E22D
S113106090E00E9499092A94F6CFF601868197812F
S113107002C08FEF9FEF2B96E2E10C944F0A0F937F
S11310801F93CF93DF93869F8001879F100D969FB8
S1131090100D1124C8010E945B08EC01009729F08F
S11310A0A80160E070E00E948709CE01DF91CF9132
S11310B01F910F9108950F931F93CF93DF93823065
S11310C0910510F482E090E0E0917301F0917401D5
S11310D020E030E0A0E0B0E0309719F14081518188
S11310E00281138148175907C8F08417950769F4DA
S11310F0109731F012960C93129713961C9327C0F5
S1131100009373011093740122C02115310519F065
S11311104217530718F49A01BD01EF01DF01F801EA
S1131120DBCF21153105F9F0281B390B24303105AB
S113113080F48A819B816115710521F0FB01938301
S1131140828304C09093740180937301FE013296EC
S113115044C0FE01E20FF31F8193919322503109A1
S1131160398328833AC02091710130917201232B75
S113117041F42091020130910301309372012093D4
S1131180710120910001309101012115310541F4D3
S11311902DB73EB74091040150910501241B350B36
S11311A0E0917101F0917201E217F307A0F42E1B94
S11311B03F0B2817390778F0AC014E5F5F4F2417B7
S11311C0350748F04E0F5F1F509372014093710131
S11311D08193919302C0E0E0F0E0CF01DF91CF91E1
S11311E01F910F910895CF93DF93009709F481C065
S11311F0FC01329713821282A0917301B0917401A1
S1131200109781F420813181820F931F2091710105
S1131210309172012817390751F5F0937201E09368
S1131220710167C0ED0120E030E0CE17DF0740F424
S11312304A815B819E0141155105F1F0EA01F5CF28
S1131240D383C28340815181840F951FC817D90766
S113125059F488819981840F951F02969183808324
S11312608A819B81938382832115310529F4F0932C
S11312707401E09373013DC0E901FB83EA83499162
S11312805991C40FD51FEC17FD0761F4808191813A
S1131290840F951F0296E901998388838281938143
S11312A09B838A83E0E0F0E012968D919C911397E2
S11312B0009719F0FD01DC01F7CF8D919C911197F6
S11312C09D012E5F3F4F820F931F2091710130913A
S11312D072012817390769F4309729F410927401C0
S11312E01092730102C013821282B0937201A09310
S11312F07101DF91CF910895FC0105906150704018
S11313000110D8F7809590958E0F9F1F0895DC01EA
S113131001C06D9341505040E0F70895FC016150C5
S1131320704001900110D8F7809590958E0F9F1F03
S113133008950F931F93CF93DF93FB01238121FD26
S113134003C08FEF9FEF2CC022FF16C04681578148
S1131350248135814217530744F4A081B1819D0152
S11313602F5F3F4F318320838C93268137812F5FFA
S11313703F4F3783268314C08B01EC01FB010084AB
S1131380F185E02D0995892BE1F6D80116968D910A
S11313909C911797019617969C938E931697CE015E
S11313A0DF91CF911F910F910895FA01AA27283058
S11313B051F1203181F1E8946F936E7F6E5F7F4F1E
S11313C08F4F9F4FAF4FB1E03ED0B4E03CD0670F9A
S11313D0781F891F9A1FA11D680F791F8A1F911DED
S11313E0A11D6A0F711D811D911DA11D20D009F43D
S11313F068943F912AE0269F11243019305D31937F
S1131400DEF6CF010895462F4770405D4193B3E067
S11314100FD0C9F7F6CF462F4F70405D4A3318F00E
S1131420495D31FD4052419302D0A9F7EACFB4E0BF
S1131430A6959795879577956795BA95C9F7009777
S11314406105710508959B01AC010A2E0694579518
S1131450479537952795BA95C9F7620F731F841F6F
S1131460951FA01D08952F923F924F925F926F9205
S11314707F928F929F92AF92BF92CF92DF92EF9220
S1131480FF920F931F93CF93DF93CDB7DEB7CA1BA1
S1131490DB0B0FB6F894DEBF0FBECDBF09942A88CC
S11314A0398848885F846E847D848C849B84AA8474
S11314B0B984C884DF80EE80FD800C811B81AA8101
S11314C0B981CE0FD11D0FB6F894DEBF0FBECDBFCC
S10B14D0ED010895F894FFCF2B
S11314D80000750120002C0133013A014101480143
S11314E84F0168656C6C6F20776F726C640055509F
S11314F820256400444F574E202564006D656E75A1
S11315084131006D656E754132006D656E7541330C
S113151800426D656E753100426D656E753200422C
S11315286D656E75330003010101000003000000BE
S10515380000AD
S9030000FC
