S01900006D6963726F636869705F6279676765726E2E7372656300
S11300000C9438000C9455000C9455000C94CF00BB
S11300100C9455000C9455000C9455000C94550008
S11300200C9455000C9455000C9455000C945500F8
S11300300C9455000C9455000C9455000C945500E8
S11300400C9455000C9455000C9455000C945500D8
S11300500C9455000C9455000C9455000C945500C8
S11300600C9455000C9455000C9455000C945500B8
S113007011241FBECFEFD4E0DEBFCDBF11E0A0E05E
S1130080B1E0E4E7FFE002C005900D92A035B107AE
S1130090D9F721E0A0E5B1E001C01D92A336B20773
S11300A0E1F70E9416010C94B8070C9400000E941A
S11300B0CF0140E060EE8FE00E94AA010895EF9224
S11300C0FF920F931F93CF93DF93CDB7DEB72B9798
S11300D00FB6F894DEBF0FBECDBFE982FA820B8360
S11300E01C832D833E834F83588769877A878B8748
S11300F048E068E080E30E94AA010E94A6016A81A8
S113010081E30E946701698182E30E9467016B8138
S113011085E30E9467014B81BE016C5F7F4F86E3DC
S11301200E947D012B960FB6F894DEBF0FBECDBFA3
S1130130DF91CF911F910F91FF90EF9008950F934E
S11301401F93CF93DF938C0181E60E945501C82F42
S1130150D0E0DC2FCC2782E60E945501C82BF801A1
S1130160D183C08386E60E945501F801838385E626
S11301700E945501F8018283C801DF91CF911F913C
S11301800F9108958BB78F7D8BBF8FB780688FBF1A
S113019086B78E7F86BF8BB780628BBF08951F9210
S11301A00F920FB60F9211242F933F934F935F93A7
S11301B06F937F938F939F93AF93BF93EF93FF932B
S11301C0CF93DF93CDB7DEB72B97DEBFCDBFCE0184
S11301D001960E949F008C811F928F9386E091E08C
S11301E09F938F930E94660340E061E08CE20E943B
S11301F0AA010F900F900F900F902B960FB6F894C2
S1130200DEBF0FBECDBFDF91CF91FF91EF91BF91C4
S1130210AF919F918F917F916F915F914F913F919A
S11302202F910F900FBE0F901F901895CF93DF93CF
S1130230CDB7DEB72B970FB6F894DEBF0FBECDBF98
S11302408FE190E00E94E00289E091E09F938F9318
S11302500E9466030E9411030E94F3020E94770227
S11302600E942B020E94C2000E9457000F900F9020
S11302701A82198288E08B8387E48C83E12CFA80CC
S113028008E017E42D813E814F81588569857A8580
S11302908B850E945F002FE38DE093E02150804026
S11302A09040E1F700C00000E3CFCF93C82F88B39C
S11302B08F7E88BB83E00E94CD028C2F0E94CD02EA
S11302C00E94D10298B3906198BBCF910895CF93C7
S11302D0DF93D82FC62F88B38F7E88BB82E00E941D
S11302E0CD028D2F0E94CD028C2F0E94CD0288B3A7
S11302F0806188BBDF91CF910895EF92FF921F93A5
S1130300CF93DF93C82F7B01142F88B38F7E88BBD4
S113031082E00E94CD028C2F0E94CD02C0E0D0E08A
S113032007C0F701EC0FFD1F80810E94CD022196CA
S1130330812F90E0C817D907A4F388B3806188BBE4
S1130340DF91CF911F91FF90EF90089581E80E9473
S1130350CD0208951F93CF93DF93182FD62FC42F68
S113036088B38F7E88BB85E00E94CD02812F0E94D6
S1130370CD028D2F0E94CD028C2F0E94CD0288B316
S1130380806188BBDF91CF911F91089580EC0E941A
S1130390CD0240E860EE8FE00E94AA010895CF9359
S11303A0DF9387B3806187BB0E94C0020E94C601AD
S11303B08EE00E945501807E803831F086E191E024
S11303C00E947C0381E044C041E061E08DE00E9432
S11303D0AA0141E061E08BE20E94AA0143E06FE3DD
S11303E08AE20E94AA0140E060EC8AE20E94AA012B
S11303F041EB6FEF89E20E94AA0145E067E088E2E1
S11304000E94AA018AE20E9455011F928F93CAE4B6
S1130410D1E0DF93CF930E94660389E20E945501E5
S11304201F928F93DF93CF930E94660388E20E940A
S113043055011F928F93DF93CF930E9466038DB76C
S11304409EB70C960FB6F8949EBF0FBE8DBF80E08A
S1130450DF91CF910895109250011092510160E004
S113046070E080E090E00E9463020E943E020895E2
S11304708093001208958093001008950F931F93A2
S1130480CF93DF9300E010E016C080EB800F0E9452
S11304903B0280E00E943B0280E10E943B02C0E0FC
S11304A0D0E004C080E00E9438022196C038D10513
S11304B0CCF30F5F1F4F083011053CF3DF91CF9150
S11304C01F910F910895CF93C62F86958695869593
S11304D080550E943B028C2F8F700E943B028C2F10
S11304E082958F70805F0E943B02CF9108958EEABF
S11304F00E943B0281EA0E943B028AED0E943B0279
S113050082E10E943B0288EC0E943B0288EA0E943E
S11305103B028FE30E943B0285ED0E943B0280E890
S11305200E943B0281E80E943B0280E50E943B025C
S113053089ED0E943B0281E20E943B0280E20E941C
S11305403B0282E00E943B028BED0E943B0280E36F
S11305500E943B028DEA0E943B0280E00E943B0223
S113056084EA0E943B0286EA0E943B028FEA0E94D0
S11305703B020E943E0260E080E00E946302089514
S113058087B3806A87BB8DB181658DB98DB18D7F4D
S11305908DB98EB18E7F8EB908958FB9779BFECFBA
S11305A008951FB8779BFECF8FB108955D9BFECF52
S11305B08CB908955F9B02C08CB1089580E00895C2
S11305C0CF93DF93C82FD92F6AED72E086ED92E0C6
S11305D00E941B03D0BDC9B988E18AB98EE880BDE9
S11305E0DF91CF91089581B3806181BBABE8B0E026
S11305F08C9180648C93EAE8F0E080818861808348
S11306008C9183608C9380818160808310928700B9
S11306101092860081B38B7F81BB81B3877F81BBBE
S1130620089585B7806885BF80B7806280BF80B732
S1130630877E80BF08950F931F93CF93DF93009716
S113064031F46115710519F480E090E03AC08B0132
S1130650EC016EE070E081E090E00E948D05FC0109
S1130660892B91F380E883830115110571F01387B9
S1130670028781E883838091590190915A01892BE3
S113068021F4F0935A01E09359012097C9F0D187DE
S1130690C08783818260838380915B0190915C0138
S11306A0892B71F4F0935C01E0935B0180915D010F
S11306B090915E01892B21F4F0935E01E0935D013A
S11306C0CF01DF91CF911F910F910895A0E0B0E089
S11306D0ECE6F3E00C949107AE014B5F5F4FFA0137
S11306E061917191AF0180915B0190915C010E94D5
S11306F0AC03E2E00C94AD070F931F93CF93DF9309
S1130700E0915B01F0915C01238121FF1BC08C010E
S1130710D0E0C0E0F80181918F0160915B0170919C
S11307205C01DB011896ED91FC911997882331F057
S11307300995892B79F3DFEFCFEFECCF8AE00995A8
S1130740892B19F08FEF9FEF02C08D2F9C2FDF9123
S1130750CF911F910F910895ABE0B0E0E2EBF3E08D
S11307600C9481076C017B018A01FC0117821682BB
S1130770838181FFCCC1CE0101963C01F6019381B6
S1130780F70193FD859193FF81917F01882309F4FB
S1130790BAC1853239F493FD859193FF81917F012C
S11307A0853229F4B60190E00E94E706E7CF912C48
S11307B0212C312CFFE1F315D8F08B3279F038F489
S11307C0803279F08332A1F4232D20611DC08D3253
S11307D061F0803369F4232D216016C0832D82607B
S11307E0382EE32DE4603E2E2AC0F32DF8601DC0A0
S11307F037FC2DC020ED280F2A3040F08E32B9F49A
S113080036FC81C1232D2064322E19C036FE06C069
S11308108AE0989E200D1124922E11C0EAE02E9EAB
S1130820200D1124222EF32DF0623F2E08C08C36A9
S113083021F4832D8068382E02C0883641F4F701F4
S113084093FD859193FF81917F018111B3CF982FFF
S11308509F7D9554933028F40C5F1F4F9FE3998339
S11308600DC0833631F0833771F0833509F059C0F8
S113087021C0F801808189830E5F1F4F88248394EF
S1130880912C530113C02801F2E04F0E511CF801C2
S1130890A080B18036FE03C0692D70E002C06FEF06
S11308A07FEFC5010E94DC064C018201F32DFF7726
S11308B03F2E16C0280122E0420E511CF801A080F0
S11308C0B18036FE03C0692D70E002C06FEF7FEF88
S11308D0C5010E94CA064C01F32DF0683F2E820127
S11308E033FC1BC0822D90E088169906B0F4B60143
S11308F080E290E00E94E7062A94F4CFF50137FCE9
S1130900859137FE81915F01B60190E00E94E70670
S113091021102A9421E0821A91088114910471F71C
S1130920E8C0843611F0893641F5F80137FE07C076
S113093060817181828193810C5F1F4F08C0608147
S11309407181072E000C880B990B0E5F1F4FF32D3E
S1130950FF763F2E97FF09C090958095709561951D
S11309607F4F8F4F9F4FF0683F2E2AE030E0A30166
S11309700E942307882E861845C0853731F4232D1D
S11309802F7EB22E2AE030E025C0932D997FB92E18
S11309908F36C1F018F4883579F0B5C0803719F076
S11309A0883721F0B0C0E92FE061BE2EB4FE0DC03F
S11309B0FB2DF460BF2E09C034FE0AC0292F266027
S11309C0B22E06C028E030E005C020E130E002C0CD
S11309D020E132E0F801B7FE07C0608171818281B5
S11309E093810C5F1F4F06C06081718180E090E0AD
S11309F00E5F1F4FA3010E942307882E8618FB2D2C
S1130A00FF773F2E36FE0DC0232D2E7FA22E891494
S1130A1058F434FE0BC032FC09C0832D8E7EA82E00
S1130A2005C0B82CA32C03C0B82C01C0B92CA4FE5B
S1130A300FC0FE01E80DF11D8081803321F49A2D51
S1130A40997EA92E09C0A2FE06C0B394B39404C033
S1130A508A2D867809F0B394A3FC11C0A0FE06C0C9
S1130A60B21488F4280C922C9B180EC0B21460F4B3
S1130A70B60180E290E00E94E706B394F7CFB21487
S1130A8018F42B1802C0982C212CA4FE10C0B60117
S1130A9080E390E00E94E706A2FE17C0A1FC03C019
S1130AA088E790E002C088E590E0B6010CC08A2D8A
S1130AB0867859F0A1FE02C08BE201C080E2A7FC57
S1130AC08DE2B60190E00E94E706891438F4B6017D
S1130AD080E390E00E94E7069A94F7CF8A94F301AA
S1130AE0E80DF11D8081B60190E00E94E7068110B7
S1130AF0F5CF222009F442CEB60180E290E00E94B4
S1130B00E7062A94F6CFF6018681978102C08FEF1B
S1130B109FEF2B96E2E10C949D070F931F93CF93C5
S1130B20DF93869F8001879F100D969F100D1124DF
S1130B30C8010E94A905EC01009729F0A80160E012
S1130B4070E00E94D506CE01DF91CF911F910F91E5
S1130B5008950F931F93CF93DF938230910510F480
S1130B6082E090E0E0916101F091620120E030E0E8
S1130B70A0E0B0E0309719F14081518102811381E6
S1130B8048175907C8F08417950769F4109731F08E
S1130B9012960C93129713961C9327C0009361012D
S1130BA01093620122C02115310519F04217530731
S1130BB018F49A01BD01EF01DF01F801DBCF211523
S1130BC03105F9F0281B390B2430310580F48A8172
S1130BD09B816115710521F0FB019383828304C01D
S1130BE09093620180936101FE01329644C0FE013C
S1130BF0E20FF31F819391932250310939832883A3
S1130C003AC020915F0130916001232B41F420917F
S1130C100201309103013093600120935F01209120
S1130C200001309101012115310541F42DB73EB782
S1130C304091040150910501241B350BE0915F01A3
S1130C40F0916001E217F307A0F42E1B3F0B281765
S1130C50390778F0AC014E5F5F4F2417350748F031
S1130C604E0F5F1F5093600140935F0181939193F6
S1130C7002C0E0E0F0E0CF01DF91CF911F910F912E
S1130C800895CF93DF93009709F481C0FC01329754
S1130C9013821282A0916101B0916201109781F4D4
S1130CA020813181820F931F20915F013091600177
S1130CB02817390751F5F0936001E0935F0167C08D
S1130CC0ED0120E030E0CE17DF0740F44A815B817C
S1130CD09E0141155105F1F0EA01F5CFD383C2839A
S1130CE040815181840F951FC817D90759F4888111
S1130CF09981840F951F0296918380838A819B81B9
S1130D00938382832115310529F4F0936201E093E2
S1130D1061013DC0E901FB83EA8349915991C40F04
S1130D20D51FEC17FD0761F480819181840F951F15
S1130D300296E90199838883828193819B838A83C4
S1130D40E0E0F0E012968D919C911397009719F0D2
S1130D50FD01DC01F7CF8D919C9111979D012E5FD0
S1130D603F4F820F931F20915F013091600128173C
S1130D70390769F4309729F41092620110926101E5
S1130D8002C013821282B0936001A0935F01DF91CD
S1130D90CF910895FC010590615070400110D8F77F
S1130DA0809590958E0F9F1F0895DC0101C06D936F
S1130DB041505040E0F70895FC01615070400190AB
S1130DC00110D8F7809590958E0F9F1F08950F936B
S1130DD01F93CF93DF93FB01238121FD03C08FEF8A
S1130DE09FEF2CC022FF16C0468157812481358194
S1130DF04217530744F4A081B1819D012F5F3F4FF7
S1130E00318320838C93268137812F5F3F4F378333
S1130E10268314C08B01EC01FB010084F185E02DD5
S1130E200995892BE1F6D80116968D919C91179717
S1130E30019617969C938E931697CE01DF91CF91CE
S1130E401F910F910895FA01AA27283051F12031FA
S1130E5081F1E8946F936E7F6E5F7F4F8F4F9F4F4A
S1130E60AF4FB1E03ED0B4E03CD0670F781F891F8C
S1130E709A1FA11D680F791F8A1F911DA11D6A0F5A
S1130E80711D811D911DA11D20D009F468943F910D
S1130E902AE0269F11243019305D3193DEF6CF010C
S1130EA00895462F4770405D4193B3E00FD0C9F7D2
S1130EB0F6CF462F4F70405D4A3318F0495D31FD3F
S1130EC04052419302D0A9F7EACFB4E0A695979592
S1130ED0879577956795BA95C9F700976105710568
S1130EE008959B01AC010A2E0694579547953795B2
S1130EF02795BA95C9F7620F731F841F951FA01D0C
S1130F0008952F923F924F925F926F927F928F92A9
S1130F109F92AF92BF92CF92DF92EF92FF920F9384
S1130F201F93CF93DF93CDB7DEB7CA1BDB0B0FB68E
S1130F30F894DEBF0FBECDBF09942A88398848884B
S1130F405F846E847D848C849B84AA84B984C884E1
S1130F50DF80EE80FD800C811B81AA81B981CE0FD8
S1130F60D11D0FB6F894DEBF0FBECDBFED010895BD
S1070F70F894FFCF1F
S1130F7400006301200025640068656C6C6F2077B1
S1130F846F726C642000204D435032353135206932
S1130F9473204E4F5420696E20636F6E66696775C3
S1130FA4726174696F6E206D6F6465206166746527
S1130FB47220726573657420210025303278200014
S9030000FC
