:100000000C9438000C9442000C9442000C94420072
:100010000C9442000C9442000C9442000C94420058
:100020000C9442000C9442000C9442000C94420048
:100030000C9442000C9442000C9442000C94420038
:100040000C9442000C9442000C9442000C94420028
:100050000C9442000C9442000C9442000C94420018
:100060000C9442000C9442000C9442000C94420008
:1000700011241FBECFEFD4E0DEBFCDBF0E944400ED
:100080000C9455000C9400008AB381608ABB8BB33A
:1000900081608BBB89E999E1FC013197F1F72BB3C2
:0E00A0002E7F2BBB0197F1F7F2CFF894FFCF24
:00000001FF
