S01900006D6963726F636869705F6279676765726E2E7372656300
S11300000C9438000C9455000C9455000C94CF00BB
S11300100C9455000C9455000C9455000C94550008
S11300200C9455000C9455000C9455000C945500F8
S11300300C9455000C9455000C9455000C945500E8
S11300400C9455000C9455000C9455000C945500D8
S11300500C9455000C9455000C9455000C945500C8
S11300600C9455000C9455000C9455000C945500B8
S113007011241FBECFEFD4E0DEBFCDBF11E0A0E05E
S1130080B1E0EEEEFEE002C005900D92AA34B10795
S1130090D9F721E0AAE4B1E001C01D92AD35B20761
S11300A0E1F70E9411010C9475070C9400000E9462
S11300B0CE0140E460EE8FE00E94A9010895EF9222
S11300C0FF920F931F93CF93DF93CDB7DEB72B9798
S11300D00FB6F894DEBF0FBECDBFE982FA820B8360
S11300E01C832D833E834F83588769877A878B8748
S11300F048E068E080E30E94A9010E94A5016A81AA
S113010081E30E946601698182E30E9466016B813A
S113011085E30E9466014B81BE016C5F7F4F86E3DD
S11301200E947C012B960FB6F894DEBF0FBECDBFA4
S1130130DF91CF911F910F91FF90EF9008950F934E
S11301401F93CF93DF938C0181E60E945401C82F43
S1130150D0E0DC2FCC2782E60E945401C82BF801A2
S1130160D183C08386E60E945401F801838385E627
S11301700E945401F8018283C801DF91CF911F913D
S11301800F9108958BB78F7D8BBF8FB780688FBF1A
S113019086B78E7F86BF8BB780628BBF08951F9210
S11301A00F920FB60F9211242F933F934F935F93A7
S11301B06F937F938F939F93AF93BF93EF93FF932B
S11301C0CF93DF93CDB7DEB72B97DEBFCDBFCE0184
S11301D001960E949F008C811F928F9386E091E08C
S11301E09F938F930E9423030F900F900F900F9073
S11301F02B960FB6F894DEBF0FBECDBFDF91CF9123
S1130200FF91EF91BF91AF919F918F917F916F91EA
S11302105F914F913F912F910F900FBE0F901F90C0
S11302201895CF93DF93CDB7DEB766970FB6F894E2
S1130230DEBF0FBECDBF8FE190E00E949D0289E03A
S113024091E09F938F930E9423030E94CE020E9409
S1130250B0020E9434020E94E8010E94C2000E947F
S113026057000F900F901D861C86E12CFD8408E03A
S113027017E4288939894A895B896C897D898E8943
S11302800E945F00CE0101960E949F008C811F9204
S11302908F9386E091E09F938F930E9423030F90A6
S11302A00F900F900F90DFCFCF93C82F88B38F7E1E
S11302B088BB83E00E948A028C2F0E948A020E94DB
S11302C08E0298B3906198BBCF910895CF93DF933A
S11302D0D82FC62F88B38F7E88BB82E00E948A0203
S11302E08D2F0E948A028C2F0E948A0288B380611B
S11302F088BBDF91CF910895EF92FF921F93CF9324
S1130300DF93C82F7B01142F88B38F7E88BB82E0D4
S11303100E948A028C2F0E948A02C0E0D0E007C0AB
S1130320F701EC0FFD1F80810E948A022196812F24
S113033090E0C817D907A4F388B3806188BBDF9124
S1130340CF911F91FF90EF90089581E80E948A0257
S113035008951F93CF93DF93182FD62FC42F88B3FC
S11303608F7E88BB85E00E948A02812F0E948A02C8
S11303708D2F0E948A028C2F0E948A0288B380618A
S113038088BBDF91CF911F91089580EC0E948A026F
S113039040E860EE8FE00E94A901089587B3806170
S11303A087BB0E947D020E94C5018EE00E94540119
S11303B0807E803831F086E191E00E94390381E04B
S11303C0089541E061E08DE00E94A90180E0089574
S11303D010924A0110924B0160E070E080E090E0DE
S11303E00E9420020E94FB01089580930012089548
S11303F08093001008950F931F93CF93DF9300E031
S113040010E016C080EB800F0E94F80180E00E948B
S1130410F80180E10E94F801C0E0D0E004C080E06F
S11304200E94F5012196C038D105CCF30F5F1F4F10
S1130430083011053CF3DF91CF911F910F9108957E
S1130440CF93C62F86958695869580550E94F80190
S11304508C2F8F700E94F8018C2F82958F70805F93
S11304600E94F801CF9108958EEA0E94F80181EA72
S11304700E94F8018AED0E94F80182E10E94F801CD
S113048088EC0E94F80188EA0E94F8018FE30E9438
S1130490F80185ED0E94F80180E80E94F80181E8E6
S11304A00E94F80180E50E94F80189ED0E94F8019C
S11304B081E20E94F80180E20E94F80182E00E9439
S11304C0F8018BED0E94F80180E30E94F8018DEAA7
S11304D00E94F80180E00E94F80184EA0E94F80179
S11304E086EA0E94F8018FEA0E94F8010E94FB014B
S11304F060E080E00E942002089587B3806A87BB91
S11305008DB181658DB98DB18D7F8DB98EB18E7FA1
S11305108EB908958FB9779BFECF08951FB8779B46
S1130520FECF8FB108955D9BFECF8CB908955F9B7C
S113053002C08CB1089580E00895CF93DF93C82F53
S1130540D92F67E972E083E992E00E94D802D0BD16
S1130550C9B988E18AB98EE880BDDF91CF91089549
S113056081B3806181BBABE8B0E08C9180648C93F3
S1130570EAE8F0E08081886180838C9183608C93C9
S1130580808181608083109287001092860081B3FD
S11305908B7F81BB81B3877F81BB089585B78068DA
S11305A085BF80B7806280BF80B7877E80BF089593
S11305B00F931F93CF93DF93009731F46115710567
S11305C019F480E090E03AC08B01EC016EE070E039
S11305D081E090E00E944A05FC01892B91F380E8B8
S11305E083830115110571F01387028781E88383E2
S11305F08091530190915401892B21F4F09354017B
S1130600E09353012097C9F0D187C087838182602A
S113061083838091550190915601892B71F4F09355
S11306205601E09355018091570190915801892B0F
S113063021F4F0935801E0935701CF01DF91CF915A
S11306401F910F910895A0E0B0E0E9E2F3E00C946B
S11306504E07AE014B5F5F4FFA0161917191AF019B
S113066080915501909156010E946903E2E00C9437
S11306706A070F931F93CF93DF93E0915501F09195
S11306805601238121FF1BC08C01D0E0C0E0F8019A
S113069081918F016091550170915601DB0118968B
S11306A0ED91FC911997882331F00995892B79F301
S11306B0DFEFCFEFECCF8AE00995892B19F08FEFAC
S11306C09FEF02C08D2F9C2FDF91CF911F910F912F
S11306D00895ABE0B0E0EFE6F3E00C943E076C0164
S11306E07B018A01FC0117821682838181FFCCC1C0
S11306F0CE0101963C01F6019381F70193FD8591AA
S113070093FF81917F01882309F4BAC1853239F4BA
S113071093FD859193FF81917F01853229F4B60180
S113072090E00E94A406E7CF912C212C312CFFE10C
S1130730F315D8F08B3279F038F4803279F08332C3
S1130740A1F4232D20611DC08D3261F0803369F442
S1130750232D216016C0832D8260382EE32DE460A2
S11307603E2E2AC0F32DF8601DC037FC2DC020EDAD
S1130770280F2A3040F08E32B9F436FC81C1232D83
S11307802064322E19C036FE06C08AE0989E200DE1
S11307901124922E11C0EAE02E9E200D1124222E47
S11307A0F32DF0623F2E08C08C3621F4832D80682F
S11307B0382E02C0883641F4F70193FD859193FFEA
S11307C081917F018111B3CF982F9F7D95549330F0
S11307D028F40C5F1F4F9FE399830DC0833631F0DB
S11307E0833771F0833509F059C021C0F801808145
S11307F089830E5F1F4F88248394912C530113C067
S11308002801F2E04F0E511CF801A080B18036FEA1
S113081003C0692D70E002C06FEF7FEFC5010E9435
S113082099064C018201F32DFF773F2E16C0280153
S113083022E0420E511CF801A080B18036FE03C0B4
S1130840692D70E002C06FEF7FEFC5010E9487063B
S11308504C01F32DF0683F2E820133FC1BC0822D26
S113086090E088169906B0F4B60180E290E00E9408
S1130870A4062A94F4CFF50137FC859137FE8191C3
S11308805F01B60190E00E94A40621102A9421E0A1
S1130890821A91088114910471F7E8C0843611F02A
S11308A0893641F5F80137FE07C060817181828184
S11308B093810C5F1F4F08C060817181072E000C6B
S11308C0880B990B0E5F1F4FF32DFF763F2E97FF7A
S11308D009C090958095709561957F4F8F4F9F4F7C
S11308E0F0683F2E2AE030E0A3010E94E006882E43
S11308F0861845C0853731F4232D2F7EB22E2AE089
S113090030E025C0932D997FB92E8F36C1F018F4AD
S1130910883579F0B5C0803719F0883721F0B0C038
S1130920E92FE061BE2EB4FE0DC0FB2DF460BF2E96
S113093009C034FE0AC0292F2660B22E06C028E062
S113094030E005C020E130E002C020E132E0F801EF
S1130950B7FE07C060817181828193810C5F1F4F54
S113096006C06081718180E090E00E5F1F4FA3019B
S11309700E94E006882E8618FB2DFF773F2E36FE58
S11309800DC0232D2E7FA22E891458F434FE0BC0E3
S113099032FC09C0832D8E7EA82E05C0B82CA32C52
S11309A003C0B82C01C0B92CA4FE0FC0FE01E80D91
S11309B0F11D8081803321F49A2D997EA92E09C0DE
S11309C0A2FE06C0B394B39404C08A2D867809F0BD
S11309D0B394A3FC11C0A0FE06C0B21488F4280C82
S11309E0922C9B180EC0B21460F4B60180E290E021
S11309F00E94A406B394F7CFB21418F42B1802C0C3
S1130A00982C212CA4FE10C0B60180E390E00E9433
S1130A10A406A2FE17C0A1FC03C088E790E002C0B0
S1130A2088E590E0B6010CC08A2D867859F0A1FEC5
S1130A3002C08BE201C080E2A7FC8DE2B60190E027
S1130A400E94A406891438F4B60180E390E00E9461
S1130A50A4069A94F7CF8A94F301E80DF11D8081DE
S1130A60B60190E00E94A4068110F5CF222009F47B
S1130A7042CEB60180E290E00E94A4062A94F6CF0A
S1130A80F6018681978102C08FEF9FEF2B96E2E1FA
S1130A900C945A070F931F93CF93DF93869F800183
S1130AA0879F100D969F100D1124C8010E946605A2
S1130AB0EC01009729F0A80160E070E00E94920622
S1130AC0CE01DF91CF911F910F9108950F931F9342
S1130AD0CF93DF938230910510F482E090E0E091AF
S1130AE05B01F0915C0120E030E0A0E0B0E03097E1
S1130AF019F1408151810281138148175907C8F0C7
S1130B008417950769F4109731F012960C93129795
S1130B1013961C9327C000935B0110935C0122C0C1
S1130B202115310519F04217530718F49A01BD0134
S1130B30EF01DF01F801DBCF21153105F9F0281BA6
S1130B40390B2430310580F48A819B81611571054C
S1130B5021F0FB019383828304C090935C01809312
S1130B605B01FE01329644C0FE01E20FF31F819344
S1130B70919322503109398328833AC02091590135
S1130B8030915A01232B41F4209102013091030149
S1130B9030935A01209359012091000130910101B1
S1130BA02115310541F42DB73EB740910401509110
S1130BB00501241B350BE0915901F0915A01E2170C
S1130BC0F307A0F42E1B3F0B2817390778F0AC016C
S1130BD04E5F5F4F2417350748F04E0F5F1F509349
S1130BE05A01409359018193919302C0E0E0F0E0EF
S1130BF0CF01DF91CF911F910F910895CF93DF9390
S1130C00009709F481C0FC01329713821282A091EB
S1130C105B01B0915C01109781F420813181820FD6
S1130C20931F2091590130915A012817390751F522
S1130C30F0935A01E093590167C0ED0120E030E0E0
S1130C40CE17DF0740F44A815B819E0141155105AF
S1130C50F1F0EA01F5CFD383C28340815181840F3F
S1130C60951FC817D90759F488819981840F951F56
S1130C700296918380838A819B8193838283211549
S1130C80310529F4F0935C01E0935B013DC0E90177
S1130C90FB83EA8349915991C40FD51FEC17FD07D3
S1130CA061F480819181840F951F0296E9019983F3
S1130CB08883828193819B838A83E0E0F0E01296AB
S1130CC08D919C911397009719F0FD01DC01F7CFEA
S1130CD08D919C9111979D012E5F3F4F820F931F21
S1130CE02091590130915A012817390769F4309736
S1130CF029F410925C0110925B0102C013821282EB
S1130D00B0935A01A0935901DF91CF910895FC014A
S1130D100590615070400110D8F7809590958E0F22
S1130D209F1F0895DC0101C06D9341505040E0F7CE
S1130D300895FC016150704001900110D8F780952E
S1130D4090958E0F9F1F08950F931F93CF93DF935A
S1130D50FB01238121FD03C08FEF9FEF2CC022FFF5
S1130D6016C046815781248135814217530744F4C4
S1130D70A081B1819D012F5F3F4F318320838C93EC
S1130D80268137812F5F3F4F3783268314C08B0121
S1130D90EC01FB010084F185E02D0995892BE1F636
S1130DA0D80116968D919C911797019617969C934E
S1130DB08E931697CE01DF91CF911F910F910895D5
S1130DC0FA01AA27283051F1203181F1E8946F9378
S1130DD06E7F6E5F7F4F8F4F9F4FAF4FB1E03ED01E
S1130DE0B4E03CD0670F781F891F9A1FA11D680FBC
S1130DF0791F8A1F911DA11D6A0F711D811D911DEF
S1130E00A11D20D009F468943F912AE0269F112463
S1130E103019305D3193DEF6CF010895462F4770C7
S1130E20405D4193B3E00FD0C9F7F6CF462F4F7022
S1130E30405D4A3318F0495D31FD4052419302D080
S1130E40A9F7EACFB4E0A695979587957795679526
S1130E50BA95C9F700976105710508959B01AC0126
S1130E600A2E06945795479537952795BA95C9F74D
S1130E70620F731F841F951FA01D08952F923F9228
S1130E804F925F926F927F928F929F92AF92BF9296
S1130E90CF92DF92EF92FF920F931F93CF93DF9342
S1130EA0CDB7DEB7CA1BDB0B0FB6F894DEBF0FBE9F
S1130EB0CDBF09942A88398848885F846E847D84EC
S1130EC08C849B84AA84B984C884DF80EE80FD80EE
S1130ED00C811B81AA81B981CE0FD11D0FB6F89464
S1110EE0DEBF0FBECDBFED010895F894FFCF25
S1130EEE00005D01200025640068656C6C6F20773E
S1130EFE6F726C642000204D4350323531352069B9
S1130F0E73204E4F5420696E20636F6E6669677549
S1130F1E726174696F6E206D6F64652061667465AD
S10D0F2E72207265736574202100BF
S9030000FC
