:100000000C94B4010C94D1010C94D1010C944B02CA
:100010000C94D1010C94D1010C94D1010C94D10118
:100020000C94D1010C94D1010C94D1010C94D10108
:100030000C94D1010C94D1010C94D1010C94D101F8
:100040000C94D1010C94D1010C94D1010C94D101E8
:100050000C94D1010C94D1010C94D1010C94D101D8
:100060000C94D1010C94D1010C94D1010C94D101C8
:10007000000000000000000000065F5F06000000B6
:100080000007070007070000147F7F147F7F14001C
:10009000242E6B6B3A120000466630180C66620024
:1000A000307A4F5D377A48000407030000000000F3
:1000B000001C3E63410000000041633E1C00000044
:1000C000082A3E1C1C3E2A0808083E3E080800007C
:1000D00000A0E06000000000080808080808000010
:1000E00000006060000000006030180C0603010092
:1000F0003E7F594D7F3E000042427F7F40400000DE
:10010000627359496F660000226349497F360000D7
:10011000181C16137F7F1000276745457D390000A6
:100120003C7E4B4979300000036371190F070000D2
:10013000367F49497F360000064F49693F1E00005F
:1001400000006C6C0000000000A0EC6C00000000DF
:10015000081C366341000000141414141414000029
:10016000004163361C080000020351590F060000CD
:100170003E7F415D5D1F1E007C7E13137E7C000070
:10018000417F7F49497F36001C3E63414163220025
:10019000417F7F41637F1C00417F7F495D41630058
:1001A000417F7F491D0103001C3E63415173720072
:1001B0007F7F08087F7F000000417F7F41000000B3
:1001C000307040417F3F0100417F7F081C77630012
:1001D000417F7F41406070007F7F060C067F7F007B
:1001E0007F7F060C187F7F001C3E6341633E1C002E
:1001F000417F7F49090F06001E3F21717F5E00008D
:10020000417F7F19396F460026674D597B320000C8
:1002100003417F7F410300007F7F40407F7F0000DC
:100220001F3F60603F1F00007F7F3018307F7F00DE
:1002300063771C081C776300074F78784F0700002E
:100240006773594D47637100007F7F414100000093
:100250000103060C183060000041417F7F00000060
:10026000080C0603060C0800808080808080808057
:100270000000030704000000207454543C78400040
:10028000413F7F44447C3800387C44446C28000063
:10029000307848493F7F4000387C54545C18000057
:1002A000487E7F490302000098BCA4A4F87C0400A7
:1002B000417F7F08047C780000447D7D4000000081
:1002C00040C484FD7D000000417F7F10386C4400F5
:1002D00000417F7F400000007C7C0C180C7C780083
:1002E0007C7C04047C780000387C44447C3800002A
:1002F00084FCF8A4243C1800183C24A4F8FC8400D6
:10030000447C78441C180000485C54547424000059
:1003100000043E7F442400003C7C40403C7C400084
:100320001C3C60603C1C00003C7C6030607C3C00FD
:10033000446C3810386C44009CBCA0A0FC7C0000CD
:100340004C64745C4C64000008083E774141000036
:1003500000000077770000004141773E0808000068
:10036000020301030203010011241FBECFEFD4E0FA
:10037000DEBFCDBF11E0A0E0B1E0E6E1FCE102C0EC
:1003800005900D92AE38B107D9F721E0AEE8B1E0A3
:1003900001C01D92A93EB207E1F70E94E9020C9448
:1003A000090E0C9400000E94B60340E060EE8FE05E
:1003B0000E9491030895EF92FF920F931F93CF93A2
:1003C000DF93CDB7DEB72B970FB6F894DEBF0FBE25
:1003D000CDBFE982FA820B831C832D833E834F833A
:1003E000588769877A878B876F2D81E30E944E0338
:1003F000698182E30E944E036B8185E30E944E0374
:100400004B81BE016C5F7F4F86E30E94640348E02E
:1004100068E080E30E9491030E948D032B960FB643
:10042000F894DEBF0FBECDBFDF91CF911F910F912A
:10043000FF90EF9008950F931F93CF93DF938C015C
:1004400081E60E943C03C82FD0E0DC2FCC2782E657
:100450000E943C03C82BF801D183C08386E60E942A
:100460003C03F801838385E60E943C03F801828304
:10047000C801DF91CF911F910F9108958BB78F7DA8
:100480008BBF8FB780688FBF86B78E7F86BF8BB7D5
:1004900080628BBF08951F920F920FB60F921124A6
:1004A0000F931F932F933F934F935F936F937F937C
:1004B0008F939F93AF93BF93EF93FF93CF93DF936C
:1004C000CDB7DEB7AC97DEBFCDBF8AE091E09F939A
:1004D0008F930E94B70910928F01CE0182960E94DD
:1004E0001B028DA11F928F930BE111E01F930F93BD
:1004F0000E94B709CE0147960E941B028B8D1F9266
:100500008F931F930F930E94B709CE010C960E9400
:100510001B0289891F928F931F930F930E94B70923
:10052000CE0101960E941B028F811F928F931F9311
:100530000F930E94B70940E061E08CE20E949103B2
:100540000FB6F894DEBF0FBECDBFAC960FB6F894D1
:10055000DEBF0FBECDBFDF91CF91FF91EF91BF9175
:10056000AF919F918F917F916F915F914F913F914B
:100570002F911F910F910F900FBE0F901F90189504
:10058000EF92FF920F931F93CF93DF93CDB7DEB718
:1005900062970FB6F894DEBF0FBECDBF402F1A8210
:1005A0001982152F372FE12CFA8004E058856985D0
:1005B0007A858B850E94DB0162960FB6F894DEBFC8
:1005C0000FBECDBFDF91CF911F910F91FF90EF90A4
:1005D0000895CF93DF93CDB7DEB727970FB6F89482
:1005E000DEBF0FBECDBF8FE190E00E94AA058FE174
:1005F00091E09F938F930E94B7090E942A070E945F
:10060000BD050E94FA040E94EE030E943E020E9471
:10061000D3010F900F90E12CF12C20C00E94DF0538
:1006200029833A834B835C836D837E838F830E940F
:10063000FB0300918F0110E029813A814B815C819D
:100640006D817E818F810E94C00283EF91E00197CE
:10065000F1F700C000009FEFE91AF90A84E6E816F6
:10066000F104E4F229813A814B815C816D817E81C4
:100670008F810E947304CFCFCF93C82F88B38F7E12
:1006800088BB83E00E9497058C2F0E9497050E94EB
:100690009B0598B3906198BBCF910895CF93DF935A
:1006A000D82FC62F88B38F7E88BB82E00E94970523
:1006B0008D2F0E9497058C2F0E94970588B380612B
:1006C00088BBDF91CF910895EF92FF921F93CF9354
:1006D000DF93C82F7B01142F88B38F7E88BB82E005
:1006E0000E9497058C2F0E949705C0E0D0E007C0BC
:1006F000F701EC0FFD1F80810E9497052196812F45
:1007000090E0C817D907A4F388B3806188BBDF9154
:10071000CF911F91FF90EF90089581E80E94970577
:1007200008951F93CF93DF93182FD62FC42F88B32C
:100730008F7E88BB85E00E949705812F0E949705D8
:100740008D2F0E9497058C2F0E94970588B380619A
:1007500088BBDF91CF911F91089580EC0E9497058F
:1007600040E860EE8FE00E949103089587B38061B6
:1007700087BB0E948A050E94AD038EE00E943C0365
:10078000807E803831F08CE291E00E94CD0981E0DA
:10079000089541E061E08DE00E94910341E061E055
:1007A0008BE20E94910343E06FE38AE20E9491038F
:1007B00040E060EC8AE20E94910341EB6FEF89E236
:1007C0000E94910345E067E088E20E94910340E6C1
:1007D00060E680E60E94910380E0089510928E0109
:1007E00010928F0160E070E080E090E00E94E604EB
:1007F0000E94C10408951F93CF93DF93CDB7DEB756
:1008000027970FB6F894DEBF0FBECDBF29833A837A
:100810004B835C836D837E838F83182F8130C9F473
:100820008091DC018130A9F080918E0190E00197E8
:1008300012F480E090E080938E011F928F9380E607
:1008400091E09F938F930E94B7090F900F900F90A4
:100850000F901330D9F48091DC018330B9F080918E
:100860008E0190E001968330910514F082E090E0D3
:1008700080938E011F928F9386E691E09F938F93D2
:100880000E94B7090F900F900F900F908D818823D1
:10089000B9F08091DA01811113C080918F0190E04D
:1008A00020918E01FC01EE0FFF1FE80FF91FEE0FE4
:1008B000FF1FEE57FE4FE20FF11D818180938F01E4
:1008C00087E0FE013196A6EDB1E001900D928A9588
:1008D000E1F727960FB6F894DEBF0FBECDBFDF91CC
:1008E000CF911F9108950F931F93CF93DF93CDB7AF
:1008F000DEB727970FB6F894DEBF0FBECDBF0E94BC
:10090000C10400E010E01BC0C801880F991F880FC8
:10091000991F880F991F6AE070E00A960E94E6040A
:1009200080918F01F801E80FF11DEE0FFF1FEA5FC4
:10093000FE4F808191810E9461050F5F1F4F10164D
:10094000110614F780918E0190E0880F991F880F8F
:10095000991F880F991F60E070E00A960E94780541
:1009600027960FB6F894DEBF0FBECDBFDF91CF91B3
:100970001F910F91089580930012089580930010A5
:1009800008950F931F93CF93DF9300E010E016C0FC
:1009900080EB800F0E94BE0480E00E94BE0480E1D4
:1009A0000E94BE04C0E0D0E004C080E00E94BB040E
:1009B0002196C038D105CCF30F5F1F4F08301105C9
:1009C0003CF3DF91CF911F910F910895CF93C62FE4
:1009D00086958695869580550E94BE048C2F8F70D3
:1009E0000E94BE048C2F82958F70805F0E94BE048F
:1009F000CF9108958EEA0E94BE0481EA0E94BE044F
:100A00008AED0E94BE0482E10E94BE0488EC0E942E
:100A1000BE0488EA0E94BE048FE30E94BE0485EDF6
:100A20000E94BE0480E80E94BE0481E80E94BE04C9
:100A300080E50E94BE0489ED0E94BE0481E20E940E
:100A4000BE0480E20E94BE0482E00E94BE048BEDE0
:100A50000E94BE0480E30E94BE048DEA0E94BE0490
:100A600080E00E94BE0484EA0E94BE0486EA0E94DE
:100A7000BE048FEA0E94BE040E94C10460E080E0D0
:100A80000E94E60408951F93CF93DF93182FC0E0D0
:100A9000D0E010C0E12FF0E0EE0FFF1FEE0FFF1FC0
:100AA000EE0FFF1FEC0FFD1FE059FF4F84910E94D6
:100AB000BB042196C830D1056CF3DF91CF911F9113
:100AC00008950F931F93CF93DF938C01C0E0D0E084
:100AD00004C080520E9443052196F801EC0FFD1FCF
:100AE00080818111F6CFDF91CF911F910F910895F1
:100AF0000E94E60488E10E94BB0488E10E94BB04D6
:100B00008EE70E94BB048CE30E94BB0488E10E9434
:100B1000BB04089587B3806A87BB8DB181658DB9A9
:100B20008DB18D7F8DB98EB18E7F8EB908958FB9BD
:100B3000779BFECF08951FB8779BFECF8FB10895A6
:100B40005D9BFECF8CB908955F9B02C08CB1089568
:100B500080E00895CF93DF93C82FD92F64EA75E022
:100B600080EA95E00E946C09D0BDC9B988E18AB9D4
:100B70008EE880BDDF91CF91089581B3806181BB04
:100B8000ABE8B0E08C9180648C93EAE8F0E080817F
:100B9000886180838C9183608C9380818160808365
:100BA000109287001092860081B38B7F81BB81B346
:100BB000877F81BB1092DE011092DD0108953F9284
:100BC0004F925F926F927F928F929F92AF92BF925D
:100BD000CF92DF92EF92FF920F931F93CF93DF9309
:100BE000CDB7DEB765970FB6F894DEBF0FBECDBFA9
:100BF000E0E0F4E1108289E190E00197F1F7E08014
:100C00000081F080C0808FEA8E1518F461E56E0DCA
:100C100001C060E0073C18F01AE3100F01C010E0BB
:100C200070E080E090E00E94490823E333E34BEC5E
:100C30005FE30E94D7080E941A08362E612F70E0E9
:100C400080E090E00E94490824EB38E94EE050E44F
:100C50000E94D7080E941A08162FEEEAEE1518F027
:100C60006FEA6E1901C060E0063C20F486ECE82EC5
:100C7000E01A01C0E12C70E080E090E00E94490899
:100C800029E638EC49E35FE30E94D7080E941A087E
:100C9000D62E6E2D70E080E090E00E94490828EB8F
:100CA00033E344E25FE30E94D7080E941A08832DD1
:100CB0008D196894332437F8380E3986161B612F46
:100CC000605868871E86F6ECF31510F481E08E8775
:100CD000673C10F082E08E8783E4831510F083E098
:100CE0008E87643410F484E08E87FA86CB8680B3D6
:100CF00084708D8780B388708C878091DD0190919E
:100D0000DE01DC01AA0FBB1FAA0FBB1FAA0FBB1F6E
:100D1000A81BB90BA057BE4F27E0FE0138960190E3
:100D20000D922A95E1F701966AE070E00E9444096D
:100D3000C82ED92E8093DD019093DE0187E0FE015D
:100D40003896DE011F9601900D928A95E1F7E12C0D
:100D5000F12C812C912C54012401350143C0C70191
:100D60008C0D9D1D2AE030E0B9010E944409B901B3
:100D70000E9444098C01000F111F000F111F000F6A
:100D8000111F081B190B00571E4FF801608170E0FE
:100D900080E090E00E94490820E030E040E251E429
:100DA0000E94A1079B01AC01C301B2010E9435075B
:100DB0002B013C01F801618170E080E090E00E942D
:100DC000490820E030E040E251E40E94A1079B0185
:100DD000AC01C501B4010E9435074B015C01FFEF76
:100DE000EF1AFF0A8AE0E816F1040CF4B8CFC30149
:100DF000B2010E9413086F87C501B4010E94130855
:100E0000388A87E0FE013F96DE01119601900D922F
:100E10008A95E1F729813A814B815C816D817E81E0
:100E20008F8190E065960FB6F894DEBF0FBECDBF00
:100E3000DF91CF911F910F91FF90EF90DF90CF90B6
:100E4000BF90AF909F908F907F906F905F904F90EA
:100E50003F90089585B7806885BF80B7806280BF66
:100E600080B7877E80BF08955058BB27AA270E946D
:100E70004C070C949D080E948F0838F00E94960839
:100E800020F039F49F3F19F426F40C948C080EF4EA
:100E9000E095E7FB0C948608E92F0E94AE0858F312
:100EA000BA17620773078407950720F079F4A6F54F
:100EB0000C94D0080EF4E0950B2EBA2FA02D0B0148
:100EC000B90190010C01CA01A0011124FF27591B8F
:100ED00099F0593F50F4503E68F11A16F040A22F95
:100EE000232F342F4427585FF3CF46953795279506
:100EF000A795F0405395C9F77EF41F16BA0B620B05
:100F0000730B840BBAF09150A1F0FF0FBB1F661F4B
:100F1000771F881FC2F70EC0BA0F621F731F841F8E
:100F200048F4879577956795B795F7959E3F08F0B4
:100F3000B0CF9395880F08F09927EE0F9795879576
:100F400008950E94B5070C949D080E94960858F0D9
:100F50000E948F0840F029F45F3F29F00C94860826
:100F600051110C94D1080C948C080E94AE0868F3BF
:100F70009923B1F3552391F3951B550BBB27AA2752
:100F800062177307840738F09F5F5F4F220F331F8C
:100F9000441FAA1FA9F335D00E2E3AF0E0E832D054
:100FA00091505040E695001CCAF72BD0FE2F29D057
:100FB000660F771F881FBB1F261737074807AB0729
:100FC000B0E809F0BB0B802DBF01FF2793585F4F9E
:100FD0003AF09E3F510578F00C9486080C94D108A5
:100FE0005F3FE4F3983ED4F3869577956795B79580
:100FF000F7959F5FC9F7880F911D9695879597F98B
:101000000895E1E0660F771F881FBB1F6217730703
:101010008407BA0720F0621B730B840BBA0BEE1F18
:1010200088F7E09508950E941A086894B1110C940D
:10103000D10808950E94B60888F09F5798F0B92FFC
:101040009927B751B0F0E1F0660F771F881F991FFD
:101050001AF0BA95C9F714C0B13091F00E94D008C7
:10106000B1E008950C94D008672F782F8827B85FD7
:1010700039F0B93FCCF3869577956795B395D9F755
:101080003EF490958095709561957F4F8F4F9F4F5F
:101090000895E89409C097FB3EF49095809570956B
:1010A00061957F4F8F4F9F4F9923A9F0F92F96E9B4
:1010B000BB279395F695879577956795B795F11129
:1010C000F8CFFAF4BB0F11F460FF1BC06F5F7F4FC6
:1010D0008F4F9F4F16C0882311F096E911C07723D8
:1010E00021F09EE8872F762F05C0662371F096E8E1
:1010F000862F70E060E02AF09A95660F771F881FB0
:10110000DAF7880F9695879597F9089597F99F676D
:1011100080E870E060E008959FEF80EC089500247F
:101120000A941616170618060906089500240A944C
:1011300012161306140605060895092E0394000CD2
:1011400011F4882352F0BB0F40F4BF2B11F460FF61
:1011500004C06F5F7F4F8F4F9F4F089557FD90588A
:10116000440F551F59F05F3F71F04795880F97FB6B
:10117000991F61F09F3F79F0879508951216130625
:101180001406551FF2CF4695F1DF08C01616170654
:101190001806991FF1CF8695710561050894089589
:1011A000E894BB2766277727CB0197F908950E941B
:1011B000EA080C949D080E948F0838F00E94960857
:1011C00020F0952311F00C9486080C948C081124BF
:1011D0000C94D1080E94AE0870F3959FC1F3950F4F
:1011E00050E0551F629FF001729FBB27F00DB11DAB
:1011F000639FAA27F00DB11DAA1F649F6627B00D3B
:10120000A11D661F829F2227B00DA11D621F739F23
:10121000B00DA11D621F839FA00D611D221F749F31
:101220003327A00D611D231F849F600D211D822F78
:10123000762F6A2F11249F5750409AF0F1F088239F
:101240004AF0EE0FFF1FBB1F661F771F881F9150CC
:101250005040A9F79E3F510580F00C9486080C94ED
:10126000D1085F3FE4F3983ED4F386957795679570
:10127000B795F795E7959F5FC1F7FE2B880F911DF6
:101280009695879597F9089597FB072E16F4009485
:1012900007D077FD09D00E94580907FC05D03EF41D
:1012A000909581959F4F0895709561957F4F089512
:1012B000AA1BBB1B51E107C0AA1FBB1FA617B7077C
:1012C00010F0A61BB70B881F991F5A95A9F7809598
:1012D0009095BC01CD0108950F931F93CF93DF9399
:1012E000009731F46115710519F480E090E03AC07F
:1012F0008B01EC016EE070E081E090E00E94DE0B7B
:10130000FC01892B91F380E883830115110571F0AD
:101310001387028781E883838091DF019091E00148
:10132000892B21F4F093E001E093DF012097C9F0CD
:10133000D187C0878381826083838091E10190910E
:10134000E201892B71F4F093E201E093E1018091D5
:10135000E3019091E401892B21F4F093E401E093FF
:10136000E301CF01DF91CF911F910F910895A0E08C
:10137000B0E0EDEBF9E00C94E20DAE014B5F5F4F96
:10138000FA0161917191AF018091E1019091E201C7
:101390000E94FD09E2E00C94FE0D0F931F93CF9382
:1013A000DF93E091E101F091E201238121FF1BC075
:1013B0008C01D0E0C0E0F80181918F016091E101E2
:1013C0007091E201DB011896ED91FC911997882349
:1013D00031F00995892B79F3DFEFCFEFECCF8AE07D
:1013E0000995892B19F08FEF9FEF02C08D2F9C2F4D
:1013F000DF91CF911F910F910895ABE0B0E0E3E052
:10140000FAE00C94D20D6C017B018A01FC01178279
:101410001682838181FFCCC1CE0101963C01F60189
:101420009381F70193FD859193FF81917F0188233B
:1014300009F4BAC1853239F493FD859193FF819106
:101440007F01853229F4B60190E00E94380DE7CF84
:10145000912C212C312CFFE1F315D8F08B3279F04F
:1014600038F4803279F08332A1F4232D20611DC03D
:101470008D3261F0803369F4232D216016C0832DF5
:101480008260382EE32DE4603E2E2AC0F32DF860F2
:101490001DC037FC2DC020ED280F2A3040F08E32C1
:1014A000B9F436FC81C1232D2064322E19C036FEDA
:1014B00006C08AE0989E200D1124922E11C0EAE009
:1014C0002E9E200D1124222EF32DF0623F2E08C0F7
:1014D0008C3621F4832D8068382E02C0883641F482
:1014E000F70193FD859193FF81917F018111B3CF26
:1014F000982F9F7D9554933028F40C5F1F4F9FE3E6
:1015000099830DC0833631F0833771F0833509F04C
:1015100059C021C0F801808189830E5F1F4F882444
:101520008394912C530113C02801F2E04F0E511CFB
:10153000F801A080B18036FE03C0692D70E002C0C2
:101540006FEF7FEFC5010E942D0D4C018201F32D3D
:10155000FF773F2E16C0280122E0420E511CF801F1
:10156000A080B18036FE03C0692D70E002C06FEF2D
:101570007FEFC5010E941B0D4C01F32DF0683F2E3B
:10158000820133FC1BC0822D90E088169906B0F4CE
:10159000B60180E290E00E94380D2A94F4CFF50164
:1015A00037FC859137FE81915F01B60190E00E9482
:1015B000380D21102A9421E0821A91088114910497
:1015C00071F7E8C0843611F0893641F5F80137FE2D
:1015D00007C060817181828193810C5F1F4F08C0B9
:1015E00060817181072E000C880B990B0E5F1F4FD5
:1015F000F32DFF763F2E97FF09C09095809570954B
:1016000061957F4F8F4F9F4FF0683F2E2AE030E06B
:10161000A3010E94740D882E861845C0853731F4C9
:10162000232D2F7EB22E2AE030E025C0932D997F06
:10163000B92E8F36C1F018F4883579F0B5C08037EF
:1016400019F0883721F0B0C0E92FE061BE2EB4FE5A
:101650000DC0FB2DF460BF2E09C034FE0AC0292F37
:101660002660B22E06C028E030E005C020E130E060
:1016700002C020E132E0F801B7FE07C0608171814D
:10168000828193810C5F1F4F06C06081718180E071
:1016900090E00E5F1F4FA3010E94740D882E8618E4
:1016A000FB2DFF773F2E36FE0DC0232D2E7FA22E61
:1016B000891458F434FE0BC032FC09C0832D8E7E91
:1016C000A82E05C0B82CA32C03C0B82C01C0B92C7F
:1016D000A4FE0FC0FE01E80DF11D8081803321F4CE
:1016E0009A2D997EA92E09C0A2FE06C0B394B39488
:1016F00004C08A2D867809F0B394A3FC11C0A0FE23
:1017000006C0B21488F4280C922C9B180EC0B21498
:1017100060F4B60180E290E00E94380DB394F7CFF8
:10172000B21418F42B1802C0982C212CA4FE10C05F
:10173000B60180E390E00E94380DA2FE17C0A1FC24
:1017400003C088E790E002C088E590E0B6010CC0D5
:101750008A2D867859F0A1FE02C08BE201C080E29A
:10176000A7FC8DE2B60190E00E94380D891438F490
:10177000B60180E390E00E94380D9A94F7CF8A94E6
:10178000F301E80DF11D8081B60190E00E94380D53
:101790008110F5CF222009F442CEB60180E290E01C
:1017A0000E94380D2A94F6CFF6018681978102C0F7
:1017B0008FEF9FEF2B96E2E10C94EE0D0F931F93AA
:1017C000CF93DF93869F8001879F100D969F100D0A
:1017D0001124C8010E94FA0BEC01009729F0A8011E
:1017E00060E070E00E94260DCE01DF91CF911F9145
:1017F0000F9108950F931F93CF93DF93823091053C
:1018000010F482E090E0E091E701F091E80120E03F
:1018100030E0A0E0B0E0309719F1408151810281C1
:10182000138148175907C8F08417950769F4109772
:1018300031F012960C93129713961C9327C00093C5
:10184000E7011093E80122C02115310519F0421774
:10185000530718F49A01BD01EF01DF01F801DBCF56
:1018600021153105F9F0281B390B2430310580F49E
:101870008A819B816115710521F0FB01938382832D
:1018800004C09093E8018093E701FE01329644C0C2
:10189000FE01E20FF31F81939193225031093983A6
:1018A00028833AC02091E5013091E601232B41F4D1
:1018B00020910201309103013093E6012093E5016C
:1018C00020910001309101012115310541F42DB71E
:1018D0003EB74091040150910501241B350BE09166
:1018E000E501F091E601E217F307A0F42E1B3F0B90
:1018F0002817390778F0AC014E5F5F4F2417350782
:1019000048F04E0F5F1F5093E6014093E50181932D
:10191000919302C0E0E0F0E0CF01DF91CF911F9101
:101920000F910895CF93DF93009709F481C0FC01D4
:10193000329713821282A091E701B091E8011097CB
:1019400081F420813181820F931F2091E501309134
:10195000E6012817390751F5F093E601E093E50118
:1019600067C0ED0120E030E0CE17DF0740F44A8188
:101970005B819E0141155105F1F0EA01F5CFD3835A
:10198000C28340815181840F951FC817D90759F42C
:1019900088819981840F951F0296918380838A8123
:1019A0009B81938382832115310529F4F093E8010B
:1019B000E093E7013DC0E901FB83EA834991599136
:1019C000C40FD51FEC17FD0761F480819181840F4E
:1019D000951F0296E90199838883828193819B8375
:1019E0008A83E0E0F0E012968D919C911397009726
:1019F00019F0FD01DC01F7CF8D919C9111979D01AC
:101A00002E5F3F4F820F931F2091E5013091E60139
:101A10002817390769F4309729F41092E8011092D9
:101A2000E70102C013821282B093E601A093E501A0
:101A3000DF91CF910895FC01059061507040011035
:101A4000D8F7809590958E0F9F1F0895DC0101C0F7
:101A50006D9341505040E0F70895FC016150704093
:101A600001900110D8F7809590958E0F9F1F0895D3
:101A70000F931F93CF93DF93FB01238121FD03C0BD
:101A80008FEF9FEF2CC022FF16C046815781248123
:101A900035814217530744F4A081B1819D012F5F26
:101AA0003F4F318320838C93268137812F5F3F4FB7
:101AB0003783268314C08B01EC01FB010084F18580
:101AC000E02D0995892BE1F6D80116968D919C9110
:101AD0001797019617969C938E931697CE01DF91D8
:101AE000CF911F910F910895FA01AA27283051F143
:101AF000203181F1E8946F936E7F6E5F7F4F8F4F3F
:101B00009F4FAF4FB1E03ED0B4E03CD0670F781F9D
:101B1000891F9A1FA11D680F791F8A1F911DA11D82
:101B20006A0F711D811D911DA11D20D009F46894BB
:101B30003F912AE0269F11243019305D3193DEF663
:101B4000CF010895462F4770405D4193B3E00FD019
:101B5000C9F7F6CF462F4F70405D4A3318F0495D04
:101B600031FD4052419302D0A9F7EACFB4E0A695E7
:101B70009795879577956795BA95C9F70097610509
:101B8000710508959B01AC010A2E0694579547955F
:101B900037952795BA95C9F7620F731F841F951F54
:101BA000A01D08952F923F924F925F926F927F9265
:101BB0008F929F92AF92BF92CF92DF92EF92FF925D
:101BC0000F931F93CF93DF93CDB7DEB7CA1BDB0B09
:101BD0000FB6F894DEBF0FBECDBF09942A883988AE
:101BE00048885F846E847D848C849B84AA84B984B5
:101BF000C884DF80EE80FD800C811B81AA81B981C1
:101C0000CE0FD11D0FB6F894DEBF0FBECDBFED01D4
:061C10000895F894FFCFD7
:101C16000000E90120006E01730172656365697653
:101C26006564206D657373616765002564200068CF
:101C3600656C6C6F20776F726C642000204D43508A
:101C460032353135206973204E4F5420696E20633A
:101C56006F6E66696775726174696F6E206D6F6409
:101C66006520616674657220726573657420210053
:101C7600555020256400444F574E20256400706C53
:101C860061790072657475726E20746F206D656E71
:0E1C96007500030101010000030000000000C2
:00000001FF
